:020000040800F2
:10000000881800209D010008113600088F2800087C
:1000100000000000000000000000000000000000E0
:10002000000000000000000000000000153600087D
:10003000000000000000000013360008173600081A
:10004000AF01000800000000AF010008AF01000888
:10005000AF010008AF0100081D120008AF01000841
:1000600000000000AF010008AF010008AF01000868
:10007000AF010008AF010008AF0100080000000058
:10008000AF010008AF010008AF010008AF01000890
:10009000AF010008AF010008AF0100089128000877
:1000A000AF010008AF010008AF010008DD3E000805
:1000B000AF010008ED3E000800F002F800F042F841
:1000C0000CA030C8083824182D18671EA246AB466D
:1000D00054465D46AC4201D100F034F87E460F3EF6
:1000E000B6460FCC0126334200D0FB1A3343A2465A
:1000F000AB4618479C550000BC550000103A02D38F
:1001000078C878C1FAD8520701D330C830C101D5B8
:1001100004680C60704700000023002400250026BE
:10012000103A01D378C1FBD8520700D330C100D5B3
:100130000B6070471FB50098019900F054FF1FBD78
:1001400010B510BD00F0EEFF1146FFF7F3FF04F00D
:10015000CDFD01F006F803B4FFF7F2FF03BC01F098
:1001600037F8000070B505460C46164602E00FCC85
:100170000FC5103E102EFAD2082E02D303CC03C5B1
:10018000083E042E07D301CC01C5361F03E02178B9
:100190002970641C6D1C761EF9D270BD074880471B
:1001A00007480047FEE7FEE7FEE7FEE7FEE7FEE75B
:1001B00004480549054A064B704700001F360008F1
:1001C000B900000888120020881800208814002038
:1001D0008814002070B5064600F0E8FE0568304639
:1001E0000B30C408E400B44201D8002070BD686838
:1001F0002A46002818D00168A14211D30B46214697
:1002000008318B4208D3436801194B6003681B1BFC
:100210000B605160046001E041685160001D70BDD9
:10022000024640680028E6D12146284600F0C6FE76
:100230000028DCD170BD70B50446051F00F0B6FE85
:100240000068002C1AD0446801E020466468002C45
:1002500001D0AC42F9D301680A18AA4204D12A6835
:1002600005468918016000E0456028684119A142EF
:1002700005D16168696021684018286070BD6C60B4
:1002800070BD000010B5024A00F0E2FE10BD000093
:100290000000002030B505460B462A461C78107831
:1002A000521C5B1C002801D0A042F7D0002C03D0C8
:1002B000002802D06D1CEFE7284630BD034670B51C
:1002C00002460B439B070FD10E4CE60100E008C22B
:1002D00008C91D1B9D433542F9D0D9B21170521C7B
:1002E00000290DD01B0AF8E70B78491C1370521C2B
:1002F000002B05D00B78491C1370521C002BF3D136
:1003000070BD00000101010130B5441C03E001781B
:10031000401C00290DD08107F9D10B4BDD0104C829
:10032000D11A91432940FAD0001B0A0603D0C01EFF
:1003300030BD001B30BD0A0401D0801E30BD090253
:10034000FCD0401E30BD000001010101421E537867
:10035000521C002BFBD10B78491C1370521C002B34
:10036000F9D17047F8B5042A2CD3830712D00B7843
:10037000491C0370401C521E83070BD00B78491C8C
:100380000370401C521E830704D00B78491C037075
:10039000401C521E8B079B0F05D0C91ADF0020237B
:1003A000DE1B08C90AE0FFF7DDFEF8BD1D4608C9DF
:1003B000FD401C46B4402C4310C0121F042AF5D245
:1003C000F308C91A521EF0D40B78491C0370401C64
:1003D000521EEAD40B78491C0370401C012AE4D455
:1003E00009780170F8BD01E004C0091F0429FBD29F
:1003F0008B0701D50280801CC90700D002707047AE
:1004000000290BD0C30702D00270401C491E0229EC
:1004100004D3830702D50280801C891EE3E70022F3
:10042000EEE70022DFE7000082078B079A423FD108
:1004300070B5920F0AD0032402780B78401C491C37
:10044000002A33D09A4231D12042F5D1214EF40115
:1004500004C808C9951B9543254018D19A420FD16D
:1004600004C808C9951B9543254010D19A4207D16D
:1004700004C808C9951B9543254008D19A42E7D086
:1004800012BA1BBA01209A4200D2404270BD12BA81
:100490001BBA2DBA18241000E0401900E140401AA0
:1004A00005D12E00E64002D1083CF4D1D01A70BD2F
:1004B00002780B78401C491C002A09D09A4207D1C7
:1004C00002780B78401C491C002A01D09A42EFD0D8
:1004D000D01A704701010101002203098B4273D336
:1004E000030A8B4258D3030B8B423CD3030C8B4241
:1004F00021D312E003460B437FD4002243088B42F2
:1005000074D303098B425FD3030A8B4244D3030B9A
:100510008B4228D3030C8B420DD30902FF2212BA5F
:10052000030C8B4202D31212090265D0030B8B42DB
:1005300019D300E0090AC30B8B4201D3CB03C01AC5
:100540005241830B8B4201D38B03C01A5241430BA0
:100550008B4201D34B03C01A5241030B8B4201D390
:100560000B03C01A5241C30A8B4201D3CB02C01AFB
:100570005241830A8B4201D38B02C01A5241430A73
:100580008B4201D34B02C01A5241030A8B4201D362
:100590000B02C01A5241CDD2C3098B4201D3CB0109
:1005A000C01A524183098B4201D38B01C01A5241B8
:1005B00043098B4201D34B01C01A524103098B42BC
:1005C00001D30B01C01A5241C3088B4201D3CB00A7
:1005D000C01A524183088B4201D38B00C01A52418A
:1005E00043088B4201D34B00C01A5241411A00D23A
:1005F00001465241104670475DE0CA0F00D04942A3
:10060000031000D3404253409C46002203098B4212
:100610002DD3030A8B4212D38901FC2212BA030A9A
:100620008B420CD3890192118B4208D3890192111C
:100630008B4204D389013AD0921100E08909C309A1
:100640008B4201D3CB01C01A524183098B4201D3A3
:100650008B01C01A524143098B4201D34B01C01A8E
:10066000524103098B4201D30B01C01A5241C30806
:100670008B4201D3CB00C01A524183088B4201D375
:100680008B00C01A5241D9D243088B4201D34B0090
:10069000C01A5241411A00D20146524110466346E7
:1006A0005B1001D34042002B00D54942704763469E
:1006B0005B1000D3404201B50449002802DC491C0C
:1006C000084000E00846C046C04602BDFFFFFF7F6D
:1006D00070477047704700000246C80FC00781434B
:1006E0004B0030B54B405B009B0D20D01923DB063F
:1006F000C91801231B05994220DB0324A407042504
:100700001346AB400BD3002B04D1EB0613409B00E8
:10071000E34204D401246407002312195941FF2342
:100720001B0599420BD2C9000143500F09E0CB02CF
:1007300004D501430803024305D0054830BDFF211D
:10074000C905084330BD084607210905884330BD67
:100750000000C07FF0B50C46871A9C410D46861AF2
:100760009D4103D2C01BA141D21963410D0D1F0D44
:10077000C94EEC1BAE435CD07F057F0D0026002FD9
:1007800051D02D05AC46A943DD020123ED0A1B051E
:100790001D4320231B1B24D41746E7403818714102
:1007A0002F46E740CC199D402818314661410C0D79
:1007B00027D161449A4013D50023401C594152006F
:1007C0000ED14008400001224B005205D34207D30E
:1007D00005204007C14201D5B04900E0B04930468C
:1007E000F0BD6B00002A00D001229A181F23203C84
:1007F0001B1B01D5002302E0E540281871410C0DB8
:10080000D7D0012424050919C407CD074008490899
:10081000E40F28436144002CD5D00024401C6141E2
:100820009A40D0D1CDE76A05520DD9D1C90FC90779
:10083000D5E79C4D4E00002801D0012400E00024A3
:1008400034195F00002A01D0012600E00026BE19FD
:10085000954FAC420CD8AE420AD8B44206D001251E
:100860006D05EC42BCD010461946F0BD9942FCD053
:1008700000203946F0BDF0B51FB40C460F46811A72
:100880009F412546861A9D4106D20125ED076F40FE
:10089000401ABC4152187B41210D1E0D8D1BAC46E8
:1008A0007D4D8D437ED075056D0D7CD00D05AE461A
:1008B000AC431B031B0B794D52429D4120236646DE
:1008C0009B1B14D31746F74038180026009074413C
:1008D00060462F460741E41900989D40281866415C
:1008E00016D4714671189A4025D5012320E093183B
:1008F0002A466A415200002B00D0521C1E23203E83
:100900009B1B002B61DD3541EE1728186641E8D5A9
:10091000001876415B1C9A4000D3401C4B05F3182D
:100920001524E34010D3002B52D071467118D30F19
:10093000C01802D3491C05B0F0BD0123DB079A4261
:10094000F9D140084000F6E701225205B21801D162
:10095000002853D00123CC0ADB029943891E002AC8
:1009600008D1020C03D0020C0004103902E0024648
:10097000002020390023550B05D112020823550B06
:1009800001D152010D23550C01D112011B1DD50CB3
:1009900001D192009B1C150D01D152005B1C20253A
:1009A000EE1A01E02CE022E00546F54015439840A0
:1009B000CA1AE10769181305C918002ABBDA03200F
:1009C00040070818C10FC9070FE071466118B2E768
:1009D000F10740080843711071444A000CD001230C
:1009E0005B059A42A7D2C90FC9070020A3E74905B2
:1009F000490D26D1002001E00028F4D100219AE71A
:100A0000284D6600002801D0012100E00021711866
:100A10005F00002A01D0012600E00026BE19224F07
:100A2000A94210D8AE420ED8B14208D001256D05BA
:100A3000E94206D01946A802414010467BE79C4295
:100A400001D0214677E70020394674E710B50C46FF
:100A50005C4005D50124E4076340FFF70CFF10BD9F
:100A6000FFF778FE10BD30B40C465C4004D501247D
:100A7000E407634030BC6DE630BCFCE670B5012491
:100A8000E40761400D465D4002D4FFF763FE70BD90
:100A90006340FFF7F0FE70BDFF0700000000F0FFAD
:100AA0000000F07F0000E0FF0000F87F1F22030C31
:100AB00002D10F22000402D0030E03D004E0002074
:100AC000014670470002083A030F01D10001121FCE
:100AD000830F01D18000921E002801DB4000521ECE
:100AE000120551184205C012411810467047C10F37
:100AF000C90700D04042012292071143D6E70121E5
:100B00008907D3E7F0B58B4C0F09254689B0BD4363
:100B10007BD01D092646AE43FAD00E465E402740E4
:100B2000F60F3E43254071D024012142FBD0FF2423
:100B3000AD19A4042D1B039501252D05DB02DB0A4D
:100B4000C9022B43C90A29431E010901040F130FCF
:100B5000050121431701880B820391432D098C461F
:100B6000A90B1E438A039543B30B9A0396433F098F
:100B7000BA0B9403A74302962E467E430497B646CB
:100B80004E19D7190C460196544305977E43371BDF
:100B90007646BF1B3601B646BE0B36190096764622
:100BA000BC043719009C01D3641C00946400002F1E
:100BB00001D001263443029E049F754366467E435E
:100BC0000496760034196E0034190094029C019E3C
:100BD0001C196643751BAE46069465464519059C6F
:100BE00005956C43594375460891691A0191049E15
:100BF00001465143A41B0491611A009C0791E10630
:100C000005D061090122114302E072E06EE0610942
:100C1000089D00272C0A2D066918049D7C412A0A8C
:100C20002D066918019D6241AC0DAD026D1854414D
:100C3000079A910D920255196141029A64465843F0
:100C40005443069B059A5A43121A131B9A0E9B0192
:100C50005B187A41010B0005C3185141220A200696
:100C600044195A419A4200D2491C01204002814253
:100C700003D315230226F64302E014230326F6438A
:100C80002020C51AA9401746AF40DA400A43204643
:100C90000399D8400914731819055118039A384359
:100CA000D2075140AC4009D00122944006D3002223
:100CB000401C5141002C01D1400840001E4A934283
:100CC00012D3012203989206904207DB05204007C9
:100CD00009181A480143C012414004E003204007AC
:100CE0000818C10FC907002009B0F0BD0020F107A6
:100CF000FAE705180C464C4111486D42A04115D346
:100D000094181A465A410E48644290410ED301206D
:100D10004A004005824209D35A00824206D3594014
:100D2000C90F084AC90700201143DDE70020064922
:100D3000DAE700000000FF07FE070000FFFFFF7F6B
:100D40000000E0FF0000F07F0000F87F0121C905EE
:100D50000123411842001B06D3185B0E0AD0C110B4
:100D60000722D206891840075242D14201D55200CB
:100D700089187047090208D50146002A03D0C10F1F
:100D8000C9070020704710467047420202D0002079
:100D900002497047072109050143F4E70000F87F85
:100DA000F0B5FF252D04C609C209FF2704462E40D1
:100DB0000137CB093E4348402A402B400746002AD2
:100DC0006BD0002B69D0AA4267D0AB4265D0002817
:100DD00000DA32460125ED0529432C4309022002A1
:100DE000090AD21A4B0C7F24E31A434C000A7C44B4
:100DF000E35C7D242404121914145B00A2188842B9
:100E000001D3521C00E0400049420C465C432411CF
:100E10005C43DB016415E318040A5C43C502200D42
:100E20000C4644436419250A5D432303EC0C0D462C
:100E3000654300030019EB184C42A34201D35B1831
:100E4000401CD4052018002B07D05B00C91804D320
:100E5000401C002901D1400840003F2189048A42FA
:100E600009D3002A08DC1106090F04D00321490721
:100E70004018C00FC007F0BD0122410012068918BA
:100E80007F2252069142F6D205214907C84201D578
:100E90009010F0BDFF20C005F0BD002F00DA3246F3
:100EA0001648AA4207D2AB4205D21902090E17D042
:100EB000F80FC007F0BDFF2563002D06AB42F9D83F
:100EC0004900A942F6D8AB4201D1A942F2D0A942C9
:100ED00001D1002101E061004908D0050843F0BDBF
:100EE0001102090EFBD0FF200243D005F0BD0A46D7
:100EF0000146104654E70000764600000000C07F1F
:100F000010B501469E240002CA15A307002A02D08C
:100F10001843002A04DBA21A002A0CDDD04010BDC1
:100F20001206120E01D140004008A21A03D4D0408C
:100F300040420028F3DDFF2248001206904201D90A
:100F4000002010BDC817C043584010BD1F22030C1D
:100F500002D10F2200041CD0030E01D10002083A76
:100F6000030F01D10001121F830F01D18000921ED7
:100F7000002801DB4000521ED20551180212511800
:100F80001922904004D3491C002801D14908490086
:100F900008467047C10FC90700D04042012292079E
:100FA0001143D3E701218907D0E7000000487047CB
:100FB00020000020704770477047704738B50446DE
:100FC0000A4600206946C046C046002805D00246B1
:100FD0002046009900F064F8012038BD10B50120CA
:100FE00000F078F810BDF8B5C046C04605460020B0
:100FF0000C461020C0460646A819A0420DD932461C
:1010000069460020C046C046070001D100F062F8E2
:101010000098A04200D00546C419FFF7C7FFF61D8F
:1010200007460560F008C0004619284600F008F899
:10103000B44204D031463868A21B00F031F8F8BD44
:1010400000210160416080607047102070470000FF
:10105000F8B515460E46040003D12C68002C00D1CB
:101060000CA4204600F04DF80419207800280ED07A
:1010700027463146384600F033F804192078002816
:1010800002D000202070641C38462C60F8BD002778
:10109000FAE7000000000000004870471800002038
:1010A00010B50346406801E003464068002801D0BF
:1010B0008842F9D31868C3188B4206D0CB1CD808D5
:1010C000C000001D411A521A0146081D0A60FFF7B0
:1010D000B2F810BD10B500F053F800F04AF810BD9A
:1010E00030B503461D78002D03D00A4603E0AC421C
:1010F00001D1181A30BD1478521C002CF7D15B1C9A
:10110000F0E730B503461D78002D08D00A46147864
:10111000521C002C03D0AC42F9D15B1CF3E7181A27
:1011200030BD70477546FFF7B7FFAE46050069460C
:101130005346C008C000854618B020B5FFF738F800
:1011400060BCB64600260027C0C5C0C5C0C5C0C526
:10115000C0C5C0C5C0C5C0C5403D490849008D4691
:10116000704710B50446C046C0462046FEF7F3FF60
:1011700010BD10B5002801D000F02AF810BD000005
:1011800010B5012805D0002103A000F027F80120A8
:1011900010BD09A1F8E7000053494752544D454D91
:1011A0003A204F7574206F662068656170206D6508
:1011B0006D6F7279000000003A2048656170206D03
:1011C000656D6F727920636F7272757074656400FB
:1011D00001491820ABBEFEE72600020070B50546A7
:1011E0000C460A2000E06D1C00F012F8002D06D01D
:1011F00028780028F7D102E0641C00F009F8002CE0
:1012000002D020780028F7D10A2000F001F870BD44
:1012100008B5694608700320ABBE08BD80B508203C
:1012200000F062F880BD10B5014620314A78022AEC
:1012300012D1026813680E24A343136013680124BB
:10124000A3431360C26B006C2346834053604C7011
:10125000002000220A7010BD0422826301200022B7
:101260000A7010BDB0B5014620314A78022A16D165
:10127000026813680E24A343136013680125AB436F
:101280001360C26B036C2C469C40546000240C70AD
:101290004D70416B002900D088472046B0BD042125
:1012A00081630120B0BD2121405C7047B0B5044688
:1012B00000F010F90546601C02D0044800780419BB
:1012C00000F008F9401BA042FAD3B0BD0400002092
:1012D00080B5082805D100F017FF00F0FBF80149A0
:1012E000486080BDAC00002080B504490A68024215
:1012F00002D00860FFF7ECFF80BDC0461404014037
:10130000F0B58AB003900F68002F00D1C3E06348A6
:10131000039A824201D0052000E0032000900023C0
:101320001A461C4608910BE03A433260079A641C47
:101330000F683846E0409B1C121D002800D1AAE02F
:1013400001260596A6403740F1D0079203200246B9
:101350009A400293D34349680D4605406A1E012A0C
:101360000693049113D80197039FB8681840089A10
:10137000D268029B9A400243BA60C806C00FA040E0
:101380007A68B2433E46019F0243726006E0032D35
:10139000039E029B02D10546079A1EE0F06806995B
:1013A000084008998A689A400243F260022D079A21
:1013B00013D11C2010400F218140E2089200B21886
:1013C000156A8D43089E3169814029431162079A4D
:1013D0007068039E0325049005409D40306806997F
:1013E00008402843306004988003800F08999ED0FD
:1013F0002C490868059D2843086008682840099022
:101400000C2010400F228240032125468D4309996C
:10141000254EA9599143AD190922D206039E964241
:101420000CD0224A964206D0214A9642009A1C4E7F
:1014300006D1022204E01A4E059A01E00022184E5D
:1014400082400A432A60B568089801464068C20293
:101450000FD53D43B560F56882020FD4BD43F560FA
:10146000756882030FD4BD4375603268C00310D520
:101470005AE7BD43B560F5688202EFD53D43F5609C
:1014800075688203EFD53D4375603268C00300D5AF
:101490004AE7BA4349E70AB0F0BDC046000C00482D
:1014A00000040140181002400800014000040048F8
:1014B0000008004842690B4693430A401104C918CA
:1014C00081617047002A02D018228150704728227B
:1014D00081507047014800687047C0468012002064
:1014E000B0B50246034640335C780220202C17D169
:1014F0001C78012C14D02420587010680268012434
:10150000A2430260220305689543056002680A430E
:101510000260016821430160002018702021597089
:10152000B0BDB0B50246034640335C780220202CA3
:1015300017D11C78012C14D0242058701068026830
:101540000124A24302600F2212020568954309029A
:1015500029430160016821430160002018702021A7
:101560005970B0BD70477047F0B581B001221502C7
:1015700001688B691C462C40664266410F688024D6
:101580003C4067426741374304D1466C01273743EB
:101590004764CD61654265415E05164600D52E461D
:1015A000002E05D19502466C082737434764CD616C
:1015B000654265419B05134609D4002B0AD0416C56
:1015C0000B22114201D001F0E9F901B0F0BD2B4628
:1015D000002BF4D15202436C02241C434464CA61C0
:1015E000416C0B221142EED1EFE780B502689169A0
:1015F000436B1268002B00D0984780BD70470000F5
:10160000F0B581B0002822D0044605464035687800
:10161000002804D100202870204600F059F9242029
:1016200068702068026801218A4302600F22120656
:101630006368934303618368194A13408360A36816
:10164000E668012E06D1CE03334383600AE0012011
:1016500001B0F0BD2127BF023B438360022E01D1C0
:10166000CB02436043680F4E1E434660C36813407D
:10167000C360226963691343A26912021A43C260FC
:10168000E269236A1343036002680A430260002090
:101690006064202169702063A87001B0F0BDC0466D
:1016A000FF7FFFFF0080000270470000F0B589B0A7
:1016B00005460646403674780220202C09D10E9C3F
:1016C000002C08D00F9F002F05D006973778012FE8
:1016D00006D109B0F0BD01204102696409B0F0BD36
:1016E000039302920591012004903070FFF7F2FEFF
:1016F000089028688169090445D41099079121212F
:1017000071704021B17000276F64069969856C6221
:101710006F636949059A0A400399C9B209040592A1
:1017200089184268654B1340C918654A8918416099
:1017300028460799089C224601F0D0FD00281ED1BA
:1017400006972868039901290BD00299090A81623A
:1017500028460799224601F0C1FD0028069F0ED1B8
:1017600028680299C9B28162079B009480210024F5
:101770002846224601F000FD0028069F1ED0377043
:10178000049809B0F0BD0498C70302E081693942AA
:10179000B3D0FFF79FFE0899411A28681A29F5D39C
:1017A00081693942F2D0686C202108436864717005
:1017B00000203070B070049809B0F0BD0394059C0F
:1017C000012004904206688D000A3E4B3E49069275
:1017D00007D028680A46416817461140021DFF20BD
:1017E0000DE0688D2B6802935B680F460B40C1B219
:1017F00009041943029B1B1D02931346029A1943C5
:10180000214311602885079B10E0688D2885296891
:101810004A683A40C0B200041043091D069A079B6B
:10182000104320430860688D00282FD028461946B1
:10183000089A01F053FD002825D12868696A0A78C2
:101840008262688D401E6885481C6862288D401E33
:101850002885698D0029079BE5D00004E3D108980D
:10186000009080210022284601F086FC00280AD141
:10187000688D000AC9D0FF2028852968486838404B
:10188000091D104ACBE7049809B0F0BD2846194657
:10189000089A01F0E0FC0028049800D019E72868B5
:1018A0002021C1614268094B134043607170039865
:1018B0003070B07009B0F0BDFF030000009800FC6C
:1018C000002000010000FF01009C00FC00E800FE79
:1018D00070B586B000681749884201D006B070BD67
:1018E000154D286801260596B1040843286028682C
:1018F00008400090032004900024039412200290DA
:10190000C020019000980D4801A9FFF7F9FC70056F
:10191000A9680143A960A9680140009100981725B2
:1019200028462146224600F067F8284600F058F87D
:1019300006B070BD0054004014100240000400487E
:10194000704770471A48007802490A681018086002
:101950007047C0468012002080B5CE480168102232
:101960000A430260032000F005F800F023F800208D
:1019700080BDC04670B504467D20C0000C4E317855
:1019800003F070FB0146CB48006803F06BFB00F0EE
:10199000C1FB0125032C08D8002806D10025E84307
:1019A00021462A4600F028F87460284670BDC046DB
:1019B0000400002082B0094801680122114301603F
:1019C0000168114001910199110742680A43426080
:1019D000406808400090009802B07047181002401C
:1019E000002805D41F2108400121814001480160E1
:1019F0007047C04600E100E0002805D403220346FA
:101A000093430A4A9A1803E00C220240064BD2186C
:101A10008007C00E8901C9B28140FF23834010684E
:101A2000984308431060704714ED00E000E400E0C4
:101A300010B54B4A13680324A343034313600948BA
:101A40000368042213430360012904D130BF0168F5
:101A50009143016010BD40BF20BF20BF016891438A
:101A6000016010BD10ED00E0F0B585B0044680784F
:101A7000C0073A4B4FD00120039001071A1F10688E
:101A80000840029006D110680843106010680840B2
:101A90000490049800920191314E3068C00513D42F
:101AA00003980702306838433060FFF713FD05469E
:101AB0003068384208D1FFF70DFD401B6428F7D984
:101AC0000325284605B0F0BD03252802234B1968DD
:101AD000014012D06268024091420ED00398000487
:101AE00019681A6802431A601A6882431A60084625
:101AF0001C4A10401860C80722D1186819490840CC
:101B00006168014319600298002804D1009A1068A6
:101B10000199884310602068C10705D01969032224
:101B20009143A2680A431A6100258006C9D5186945
:101B300010218843E16801431961284605B0F0BDD2
:101B4000FFF7C8FC0646544F044B18688007D4D4EE
:101B5000FFF7C0FC801BB842F6D9B2E72010024064
:101B600000700040FFFCFFFFF0B581B0002861D09D
:101B70000446484A1368012003408B4208D2136888
:101B80000126B3430B431360126832408A424ED1A0
:101B9000009121688A07544B11D54A0707D50722BF
:101BA0001202514B1B6813434F4A13604E4B1A6885
:101BB000F0239A43A36813434B4A13604A4BC90767
:101BC0003CD13449086801263040009A904205D93A
:101BD0000868B04308600868C00728D1207840072B
:101BE00006D50720000219688143E06808431860A1
:101BF00019680C220A403D48082A0CD18902090FB5
:101C00003B4A545C996A0F220A403A49895C03F0C6
:101C100029FA354B604319680906090F1F4A515CC0
:101C2000C840244908600320FFF7A4FE0026304680
:101C300001B0F0BD0126304601B0F0BD61681A1F49
:101C4000022906D0012909D1126892030646EED571
:101C500008E0126892010646E9D503E0126892078F
:101C60000646E4D518680326B04308431860FFF71A
:101C700031FC0746084D1C4B18680C210140606878
:101C8000800081429DD0FFF725FCC01BA842F2D9FD
:101C9000CDE7C0460020024088130000A854000889
:101CA00004480068104909684905490F024A515C17
:101CB000C84070470C000020B854000810B50A490D
:101CC0000A680C2313400948082B0BD19202120F0B
:101CD000074B9C5C896A0F220A400649895C03F025
:101CE000C1F9604310BDC0460410024000127A00E2
:101CF000C0540008D0540008F0B587B00446012055
:101D0000002C00D1F5E104902078C007FB4E05942B
:101D100019D071680C20014004290DD07168014070
:101D2000082900D0C0E00320C003716801400120F1
:101D30000004814200D0B7E03068800303D56068BA
:101D4000002800D118E1207880071FD570680007AF
:101D5000800F0CD070680C21014008297AD1032033
:101D6000C003716801400120C003814272D1306814
:101D70008007059C03D5E068012800D0FCE03068AE
:101D8000F82188432169C90001433160059C20780E
:101D9000000724D42078400736D42078C00600D429
:101DA000C5E005984069411D00D1B4E0012800D08C
:101DB00007E1706B042101437163706B01210143E2
:101DC0007163FFF787FB0546706B800700D5A6E0BF
:101DD000FFF780FB411B03200229F5D989E1706AD6
:101DE000E169002974D0012108437062FFF772FB9A
:101DF0000546706A8007CDD4FFF76CFB401B0228B4
:101E0000F7D9032007B0F0BD012003900107F06966
:101E10000840029006D1F0690843F061F06908407B
:101E2000069006980191B64F3868C00528D40398EB
:101E30000402386820433860FFF74CFB05463868D9
:101E400020421DD1FFF746FB401B6428F7D9032031
:101E500007B0F0BD3068059CE16800294AD0012137
:101E600008433060FFF736FB05463068800786D4AC
:101E7000FFF730FB401B0228F7D9032007B0F0BD65
:101E8000059880689F4F002800D1AFE0052800D159
:101E9000C1E0012800D1C2E0306A03998843306272
:101EA000306A04218843BDE06168012047040029AD
:101EB00000D1D0E0052900D1E4E0012900D1E5E01E
:101EC000010432688A433260810430688843E0E06C
:101ED000012188437062FFF7FDFA0546706A8007AA
:101EE00000D457E7FFF7F6FA401B0228F6D9032083
:101EF00007B0F0BD012188433060FFF7EBFA0546DB
:101F00003068800700D441E7FFF7E4FA411B032063
:101F10000229F5D9EDE0706B042188437063706B82
:101F2000F821884305998969C900014371630598BF
:101F3000046A002C1DD070680C21014008291ED1B4
:101F4000012C19D00320C20370680240F16A059C7D
:101F5000636A9A4210D10F221140E36A9942049BAE
:101F600000D0C8E091040840A16A8842184600D019
:101F7000BFE0002007B0F0BD049807B0F0BD01201D
:101F8000020631680492914331604706FFF7A2FAD6
:101F90000546022C0BD1049C3068384200D188E001
:101FA000FFF798FA411B03200229F5D9A1E0306818
:101FB0003842DED0FFF78EFA411B03200229F6D902
:101FC00097E0706B042101437163706B01218843BA
:101FD0007063FFF77FFA0546706B8007A7D5FFF7A0
:101FE00079FA411B03200229F6D982E0306A03996D
:101FF00088433062306A042188433062FFF76AFA0E
:102000000546306A80071CD5FFF764FA411B0320A0
:10201000B942F6D96DE0306A042101433162306A79
:10202000039908433062FFF755FA0546306A800786
:1020300007D4FFF74FFA401BB842F7D9032007B087
:10204000F0BD02980028059C00D0A6E6F069019931
:102050008843F061A1E6010432688A43326080045B
:10206000316881433160FFF735FA0546059C3068D9
:10207000384200D167E6FFF72DFA411B032064299F
:10208000F5D936E0810432680A43326001043068D1
:1020900008433060FFF71EFA05463068384200D02A
:1020A00051E6FFF717FA401B6428F6D9032007B062
:1020B000F0BDF06A0F218843059AD16A0143F162AD
:1020C0007B20C00371688143906A0843516A0143D1
:1020D0007160306820433060FFF7FCF904463068D7
:1020E000384200D045E7FFF7F5F9011B032002292C
:1020F000F5D907B0F0BD184607B0F0BD001002409A
:1021000000700040881300001148016802220A4351
:1021100002607047401E010E01D001207047074940
:102120000B4A5060064803680B4003218907591881
:10213000016000209060072111607047FFFFFF00E1
:1021400020ED00E0024801680222914301607047DF
:1021500010E000E070477047F0B589B00368D969B6
:102160001F6820220797069217407C427C41012578
:10217000EA0216462F3608910E40203E711E8E410F
:1021800026439E6852D00297039305950746583719
:1021900011460F31089B0B420490079D06D0E14980
:1021A000294001231E40711800D08FE03B461024C7
:1021B000294621404E424E41089A11460294214040
:1021C0004F424F41016E01290598044634D13C46E7
:1021D000002C044633D0002C34D0802129404C42BE
:1021E0004C4111060346049800D52346002B00D12C
:1021F000D9E0402425406B426B41510600D5059340
:102200000599002910D1EFF31081012282F3108883
:1022100002681368A343136081F310880021C1662C
:102220000699C16700F032FB09B0F0BD816E00294C
:10223000FAD0884709B0F0BD002C0446CBD1344613
:10224000002CCAD11F46039802990162806840069B
:10225000049900D5AEE07B8838887A88002AE3D0DC
:102260009842E1D0EFF31084012282F3108809250F
:102270006D010E6808933B463768AF43376084F3BF
:102280001088EFF3108482F310880D68AE689643CF
:10229000AE6084F31088069C9C6200248C660C66F9
:1022A000EFF3108482F310880A681568029B9D433F
:1022B000156084F3108802224A66089A801A82B256
:1022C00008461146FFF746FF09B0F0BD019219021A
:1022D00029404C424C41089AD1070598014600D04C
:1022E0002146002904D103990B62F96A1943F96266
:1022F000744274419107014600D52146002907D157
:102300000221039A1162089AF96A04240C43FC62C0
:10231000744274415107014600D52146002907D176
:102320000421039A1162089AF96A02240C43FC62A0
:1023300002990E43744274411107064600D52646A1
:10234000002E039E04D108213162FC6A0C43FC621A
:1023500099060D406C426C41154601990A420546AA
:102360000DD02546002D0CD101983062F96A0698EF
:102370000143F962F96A0029029907D154E7002D57
:10238000F2D0F96A0029029900D14DE7069802407F
:1023900005984C424C41002A00D020461D4600289A
:1023A0005BD0049C60E0C16E002900D13CE7884707
:1023B00009B0F0BD486F016849688AB2002A00D1AF
:1023C00032E73C88A242049C00D32DE779808069E3
:1023D000202837D0EFF31081012080F31088534A72
:1023E0002032049C246825681540256081F31088FC
:1023F000EFF3108180F31088049A12689468844384
:10240000946081F31088EFF3108180F31088049AB0
:10241000126894684025AC439460049C81F3108852
:102420000699B96200212166EFF3108180F31088CC
:1024300020680268029B9A43026081F31088606FF3
:10244000FEF7F1FE0220606638887988401A81B272
:102450002046FFF77FFE09B0F0BD049CA16E002965
:1024600002D0204688472668F96A28230B40B168C5
:1024700040200140C91806D12046FFF76CFE00201D
:10248000F86209B0F0BDEFF310812E4685F3108895
:102490000922520123681C6894431C60049C81F348
:1024A0001088EFF3108185F3108822689368AB439E
:1024B000936081F31088216E01290BD1EFF3108115
:1024C00085F31088226813681024A343049C1360CA
:1024D00081F310880699B96200212166A1662168FE
:1024E0008968490618D5EFF3108185F310882268B2
:1024F00093688343936081F31088606F00280BD04A
:1025000009494163FEF7AEFE002800D18CE6606FFA
:10251000416B884709B0F0BD2046FFF71CFE09B0AB
:10252000F0BDC04620010004B9370008DFFEFFFF00
:10253000B0B500282ED00446C06F002805D1782001
:1025400000212154204600F027F82420E06720686D
:1025500001680125A9430160204601F07BFA0128AA
:1025600016D0606A002802D0204601F059F80120F8
:10257000C102226853688B435360916808239943D2
:102580009160116801431160204601F0B3F80546DF
:102590002846B0BD0120B0BDB0B586B0002405947A
:1025A00004940394029401940068604988421AD00C
:1025B000224988423FD101218803214A53680343BD
:1025C0005360536803400093009848041368034322
:1025D000136012680240009200980920C00603228E
:1025E00052021B2515E00120800415498A68024328
:1025F0008A608A6802400092009A0A6802430A6070
:102600000968014000910098032082021D250D48B1
:102610000421059103210491039402210291019266
:1026200001A9FEF76DFE284621462246FFF7E4F990
:102630002846FFF7D5F906B0B0BDC04600380140C6
:102640001410024000040048F0B581B08023C35844
:10265000202B12D1012400290CD0002A0AD00123FA
:102660001C038568A5420CD1CC070AD00469002C54
:1026700007D11C46204601B0F0BD0224204601B01F
:10268000F0BD0024046605686D682D020AD5EFF3DD
:10269000108583F310889B06066837681F433760F0
:1026A00085F3108801F088FA204601B0F0BD0000E3
:1026B000F0B581B000681D49884201D001B0F0BD7D
:1026C0001B4F38781B4D295C38780A2923D1002804
:1026D0000AD038784019401E00780D2804D1387887
:1026E0004019401E0A210170387800242C54787853
:1026F00011490D180F48FDF707FE064628460D4DF7
:1027000029463246FDF72EFE7878801978703C70A5
:102710000120B87002E0401C3870387838782918E9
:1027200006480122FFF790FF01B0F0BD00480040CD
:10273000AC0000201C0200201C0A00209401002094
:10274000F0B585B00546C06F202811D101200029C1
:102750000CD01646002A09D001200703AA68BA4205
:1027600009D1CA0707D02A69002A04D105B0F0BDF3
:10277000022005B0F0BD019103932C465034002097
:10278000029060632120E867FEF7A4FE0490668053
:102790002680A868B84202D12869002801D0019F8C
:1027A00002E000270198029003990BE0029A118839
:1027B000184B19400185921C029237460399608894
:1027C000401E60806088002810D000918021002683
:1027D00028463246049B01F0AFFA002814D128683D
:1027E000002FE3D0397801857F1CE7E70091402175
:1027F00000222846049B01F09FFA2021E967002867
:10280000B4D0032005B0F0BD2020E867032005B058
:10281000F0BDC046FF010000F0B5C36F202B10D102
:10282000012300292CD0002A2AD085680124260300
:10283000B54208D1CB0706D00369002B03D120464F
:10284000F0BD0220F0BD074650377A8000237B633D
:102850003A80C1642121C167B54202D101690029D2
:1028600001D0094900E00749C166EFF3108184F304
:1028700010880068026880241443046081F3108883
:102880001846F0BD813C0008E13C00087047FEE7B7
:1028900080B50748006880694005400F03D00448B0
:1028A000FEF762FE80BD0248FEF79FFE80BDC04677
:1028B000B800002080B5406A816B002901D0002259
:1028C0004A6301464031C26B002A01D000235363A2
:1028D0004A78602A07D120224A7000220A700263D7
:1028E000FEF740FE80BD00220A700263FEF786FEFE
:1028F00080BD0000F0B583B00646403671782822CE
:102900000A400568282A21D1A969AC69AA680292FF
:10291000EB68FE22240CC903C90FC768022F1BD124
:1029200001911946029BDF0967407C07A40F1FD065
:102930000B461340002232702A68B824A2432A6052
:1029400001991A46FEF70FFE03B0F0BD002030706B
:102950000820E86103B0F0BD002333702B68B8266F
:10296000B3432B6014402246FEF7FDFD03B0F0BDDB
:10297000826C521C8264826C022AEBD1064C1A468D
:1029800022400023836433700823EB610199FEF732
:10299000EAFD03B0F0BDC046FF03000070B5044679
:1029A000054640356A780020A870D84BE362608500
:1029B000636C0B4363646978283A022A0AD828209A
:1029C000014028291AD0F2216A780240282A1AD117
:1029D000042219E0697821680A68FE239A430A6094
:1029E0008A69920718D48A69D20719D18A690123A2
:1029F00013438B616A78602A24D014E042216A78FC
:102A00000240282AE4D0B4220A4321680B68934389
:102A10000B6068703D4815E088628A69D207E5D08E
:102A20006A78602A0ED020226A708B699B0609D5CD
:102A30008B69DB0605D51023CB61636C04261E432E
:102A40006664CA616063A06B226B002813D0212AE0
:102A500001D0112A0FD10A68520404D50122920331
:102A60000B6893430B60FEF71EFC01282CD168789D
:102A7000602816D11FE0E06B002819D0222A01D06F
:102A8000122A15D10A68120404D50122D2030B6858
:102A900093430B60FEF707FC012829D16878602872
:102AA00009D00020287020632046FEF7A7FD70BDE6
:102AB0006878602815D12020687000202870206375
:102AC0002046FEF74FFD70BD00202870A06B104916
:102AD0004163FEF7C7FB002809D0A06B416B884714
:102AE00070BD0020287020632046FEF787FD70BD72
:102AF00000202870E06B06494163FEF7B3FB002815
:102B0000F5D0E06B416B884770BDC046152F0008BB
:102B1000B5280008F0B583B0029104460268176832
:102B200006464036707820210191D161F72101409D
:102B3000FC20C543212904D0222908D122212B467B
:102B400000E0AB1C7078106818401060216300959D
:102B50000123D9035068084350605068EC4D05408C
:102B60005560906980070FD49069C007029D11D00D
:102B70009B03780414D40F421BD010688843106064
:102B8000E76B002F12D114E0002090629069C0071B
:102B9000029DEDD19069184390619B037804EAD5BA
:102BA000106898431060A76B002F02D03868406807
:102BB000608568070ED5606A526A0270606A401CC0
:102BC0006062228D0025002A04D0501E2085608D71
:102BD000401E6085608D002803D0606C0422024393
:102BE00062640027B7706763606C002831D0616C45
:102BF0002046FFF7D3FE7078282849D14348E06289
:102C00002763019870706763B770680712D5606AB0
:102C10002168496A0170606A401C6062208D00284A
:102C200008D0618D491E6185401E2085606C04219D
:102C3000014361647078707820680168FE229143D6
:102C4000016037701021C1612046FEF72DFD03B0F1
:102C5000F0BDE06A2D4A90420BD1707801997170F5
:102C600037702763222810D12046FEF769FE03B093
:102C7000F0BD104622681568B7701D420AD10D429A
:102C8000009B05460CD0424907E02046FEF759FE5E
:102C900003B0F0BD3D49009B054610680840106038
:102CA000707829280AD1282070702121216337707B
:102CB0007178014028290FD00A330EE070782A2855
:102CC00019D128207070222121633770717801405A
:102CD000282909D0083308E0BA331068184010607A
:102CE0002046FEF72EFE06E0B8331068184010604C
:102CF0002046FEF725FEE562019870703770276365
:102D00002046FEF7D1FC03B0F0BDC0460000FFFF37
:102D1000B0B501680C680246403200239370650428
:102D200003D4240405D51A4C00E0184C0D68254046
:102D30000D605478292C0CD128245470212505636A
:102D4000137053782340F422D243282B16D0921CC0
:102D500015E054782A2C10D12824547022250563BC
:102D6000137053782340F422D243282B00D1B03281
:102D70000B6813400B60FEF7E3FDB0BDB2320B6889
:102D800013400B60FEF7DDFDB0BDC046FFBFFFFF87
:102D9000FF7FFFFFF0B585B00E460446403004903B
:102DA00020688169C90606D400210F460125826981
:102DB000D30545D448E01021C1618169890637D423
:102DC000711C32D015460120002E6CD18603039071
:102DD000C7030297FEF77EFB206842680499897852
:102DE00083693B4209D0324007D1202905D0416890
:102DF00031434160FEF76EFB054620688169890614
:102E000005D4FEF767FB401B1A28F6D377E08169EB
:102E10008906029FDED50BE08169890608D48169A5
:102E2000890605D48169890602D481698906F3D5AA
:102E30002021C1610127042101258269D30503D521
:102E40002B02C36129432F466B02560506D41A4252
:102E50000AD1002F0BD1002005B0F0BDAD02C56135
:102E6000082529431A4202D0C36102221143826914
:102E7000920701D5002282628269D20703D182695A
:102E80000123134383614268214B13404360606C0C
:102E900008436064202004994870002008708870FE
:102EA000012005B0F0BD810302910390C0030190A1
:102EB000019F03E0206881698906B9D4FEF70AFB07
:102EC000401BB042F6D9206842680499897883692A
:102ED0003B420BD0029B1A4008D1202906D0416802
:102EE000029A11434160FEF7F5FA054620688069B1
:102EF0008006DFD4FEF7EEFA401B1A28F6D32068CE
:102F000081692421039F01258269D30598D49BE719
:102F100000E800FEF0B583B0164604464020205C71
:102F2000E26A012802D1022003B0F0BD0D4620461E
:102F300040300127029007700E40B00609D52046A8
:102F4000294601943C461746FFF7E4FD3A462746DA
:102F5000019CF0061AD470072AD430077ED4B0073B
:102F6000029E21D5608D002800D1B8E02068616AFA
:102F70000A788262481C6062208D401E2085608D28
:102F8000401E60850020307003B0F0BD608D0028C9
:102F90002FD020681021C161606C0421014361645D
:102FA00071480242029E61D00020307003B0F0BD33
:102FB000608D0028029E0CD0606A2168496A017009
:102FC000606A401C6062208D401E2085608D401E1E
:102FD0006085608D0028E7D164488242E4D0206893
:102FE00002680021B170530465D4120467D5614AA8
:102FF00062E0029E70785D4928283FD178068242BF
:103000003CD1E16200202063202171706063B070C8
:10301000690712D5616A2268526A0A70616A491C9E
:103020006162218D002908D0628D521E6285491E81
:103030002185616C04220A43626471787178216889
:103040000A68FE239A430A6030701020C861204647
:10305000FEF72AFB0020307003B0F0BD2046FFF7DA
:1030600049FC029E0020307003B0F0BD616C204628
:10307000FFF794FC0020307003B0F0BD1546727865
:1030800020681023C361292A8ED18D428CD081699A
:10309000890701D5002181628169C90702D181694F
:1030A0003943816102680021B170530422D41204B3
:1030B00024D5304A1FE02E4A03681340036072781B
:1030C000292A2BD12822727021232363317073782F
:1030D0001340F421C943282B1ED1B23139E02248D4
:1030E000024200D060E72046FFF712FE0020307059
:1030F00003B0F0BD1E4A0368134003607278292AAA
:103100000CD128227270212323633170737813400D
:10311000F421C943282B1BD0891C1AE072782A2A73
:1031200000D041E728227270222323633170737824
:103130001340F421C943282B00D1B03102680A4062
:1031400002602046FEF7FCFB0020307003B0F0BDAB
:10315000B23102680A4002602046FEF7F2FB00200E
:10316000307003B0F0BDC046FFFFFFFE0000FFFF60
:10317000FFBFFFFFFF7FFFFFF0B583B01C46154682
:103180000E460746036899693140891B4A424A4105
:103190000020AA4234D1611C2BD0002C32D104462D
:1031A000FEF798F9386881693140891B4A424A41E3
:1031B000AA4240D080693040801B41424141A9422F
:1031C000EED0204603B0F0BD99693140891B4A42D8
:1031D0004A41AA4214D199693140891B4A424A4165
:1031E000AA420DD199693140891B4A424A41AA42FB
:1031F00006D199693140891B4A424A41AA42E3D02B
:1032000003B0F0BD01900898029006E0806930405C
:10321000801B41424141A9421AD1FEF75BF9029954
:10322000411A3868A142F1D981693140891B4A426B
:103230004A41AA42EAD138464030796C20221143F3
:1032400079644270002101708170012003B0F0BDEB
:10325000019803B0F0BDF0B581B005460068806903
:103260000024800622D416460F46002903D129E007
:10327000806980061AD4284639463246FFF78AFD0F
:10328000002827D1FEF726F9811B2868B942EFD91B
:1032900081698906ECD428464030696C20221143AC
:1032A000696442700021017081700124204601B0E0
:1032B000F0BDFEF70FF9286881698906EBD58069B2
:1032C0008006F3D40024284621463246FFF762FDEB
:1032D0000028EED00124204601B0F0BDF0B581B049
:1032E0000546006880690024800716D416460F46FC
:1032F000481C19D0002F26D10024284621463246EA
:10330000FFF748FD002838D1FEF7E4F82868816906
:10331000890728D580698007EED5204601B0F0BD29
:10332000286880698007F8D40024E14328463246A3
:10333000FFF730FD0028F3D00124204601B0F0BD96
:1033400080698007E9D4284639463246FFF722FDD6
:10335000002812D1FEF7BEF8811B2868B942EFD9C8
:1033600081698907ECD428464030696C20221143DA
:10337000696442700021017081700124204601B00F
:10338000F0BD000010B51848184901242246FFF787
:103390005BF900F041F8164801F038FE154801F0DD
:1033A00035FE1548FDF782FF144801F02FFE144842
:1033B00001F02CFE134801F029FE134801F026FE0F
:1033C0001248FDF773FF124801F020FE7D20C00077
:1033D000FDF76CFF61031B482246FEF773F80D48AA
:1033E0000C3000F08BFD10BD940100201C02002069
:1033F000BD5500086E5500088813000014560008DB
:1034000027560008F2550008AD550008204E000070
:103410009F550008AC000020B0B501242103094DE0
:1034200000222846FEF74EF86420FDF73FFFA10377
:1034300028462246FEF746F87D200001FDF736FFBC
:10344000B0BDC04600040048F0B583B0029050A063
:1034500001F0DCFD544E3168002973D05348FCF76D
:103460002DFF341D214600F093FE3068FCF7E3FE8B
:103470002C363046FCF748FF401CC0B2FCF7AAFED1
:10348000054600280AD028463146FCF717FFFCF70E
:103490003BFF2C2129542818002141702046FCF7BD
:1034A00033FFC0B2FCF796FE064600280AD030462D
:1034B0002146FCF703FFFCF727FF2C21315430187D
:1034C00000214170204601F0A3FB07462846FCF787
:1034D0001BFF04463046FCF717FF24183846FCF75C
:1034E00013FF2018401CFCF775FE04462946FCF724
:1034F000E5FE3146FCF72AFF3946FCF727FF2CA0F2
:1035000001F084FD2FA13846FCF7C4FE0021C94319
:103510000191002818D0002C14D02046FCF7F4FEAE
:1035200082B202982146019BFFF70AF92046FCF778
:1035300082FE2846FCF77FFE3046FCF77CFE3846CC
:10354000FCF779FE03B0F0BD24A12E220298019B66
:10355000FFF7F6F87D204001FDF7A8FE0920C00620
:103560000121C902FDF7A6FF2046FCF7CDFE82B27D
:1035700002982146019BFFF7E3F8C820FDF796FE6D
:10358000224902220298FFF747F9002CC5D1D9E75A
:1035900041542B51474E535352443D224E4D4541C9
:1035A0002F524D43220D0A00780000201C120020EB
:1035B00041542B435245473F3B2B43475245473FDE
:1035C0000D0A000030302E3030303030302C3030AA
:1035D000302E3030303030302C00000041542B5130
:1035E0004D545055423D302C302C302C302C226420
:1035F00075637472616E3134332F66656564732F41
:1036000064657669636531220D0A000010000020B0
:10361000FEE77047704780B5FEF794F980BD7047AC
:10362000B0B5416ACA070CD18A0714D44A071CD422
:103630000A0724D4CA062CD48A0634D44A063CD4B9
:103640004CE00122520403685C689443826A22437E
:103650005A608A07EAD50122120403685C68944321
:10366000C26A22435A604A07E2D5012292040368E3
:103670005C689443026B22435A600A07DAD5012240
:10368000D20303685C689443426B22435A60CA06C3
:10369000D2D50122120303689C689443826B2243B3
:1036A0009A608A06CAD50122520303689C68944333
:1036B000C26B22439A604A0610D5012213050268A4
:1036C00054689C43056C2C4354609D4206D10323EF
:1036D0005B0554689C43436C23435360090607D53C
:1036E0000121C904026853688B43806C1843506001
:1036F000B0BD0000F0B583B004460646783600271A
:10370000F760FDF7E7FE03462068016809071FD54B
:1037100028480090012002904105002220461D46C5
:1037200000F00AFB002811D0EFF31080029981F31A
:10373000108821680A6880239A430A6080F3108801
:103740002020E0670320377003B0F0BD20682B46CF
:103750000068400725D5174800900125A9050022DB
:10376000204600F0E9FA00281BD0EFF3108085F323
:10377000108809214901226813688B43136080F384
:103780001088EFF3108085F3108821688A68AA43B7
:103790008A6080F310882020B0600320377003B067
:1037A000F0BD2020E067B060276667663846377056
:1037B00003B0F0BDFFFFFF0180B5406A0146523102
:1037C00000220A8152214252FEF7C5FC80BDF0B5AD
:1037D00081B00268014658318B888C6A222C0DD149
:1037E000928C1A40436D1A804A88521E4A809A1C55
:1037F00042654A88002A07D001B0F0BD90690821CF
:103800000143916101B0F0BDEFF31083012282F317
:1038100010880924640105682E68A6432E6083F38E
:103820001088EFF3108382F310880468A56895432D
:10383000A56083F3108820238B6200234366836690
:103840000468646824020AD5EFF3108482F31088B8
:10385000950606683768AF43376084F31088046EB6
:10386000012C15D10366EFF3108382F310880468EE
:10387000256810229543256083F310880368DC696E
:10388000E40600D51A620988FEF764FC01B0F0BDB9
:10389000FEF70EFF01B0F0BDF0B581B00268014641
:1038A00058318B888C6A222C0ED1928C1A40436D31
:1038B0001A704A88521E4A80426D521C42654A88DC
:1038C000002A07D001B0F0BD906908210143916141
:1038D00001B0F0BDEFF31083012282F310880924B8
:1038E000640105682E68A6432E6083F31088EFF309
:1038F000108382F310880468A5689543A56083F35C
:10390000108820238B620023436683660468646802
:1039100024020AD5EFF3108482F310889506066816
:103920003768AF43376084F31088046E012C15D1DB
:103930000366EFF3108382F3108804682568102271
:103940009543256083F310880368DC69E40600D59D
:103950001A620988FEF7FEFB01B0F0BDFEF7A8FE73
:1039600001B0F0BDF0B581B005462C488078002844
:1039700026D014460E462846FCF7C6FC0027FB431B
:1039800082B227482946FEF7DBFE26A12046FCF737
:1039900081FC002805D026A1284601F0FFF8264921
:1039A000086028463146FCF775FC06460120C10236
:1039B0002846FCF734FD194887704770002E01D067
:1039C00001B0F0BD1D492046FCF764FC002807D07B
:1039D0001B4801F01BFB1B4801F018FB01B0F0BDB8
:1039E00019492046FCF756FC002812D00B4988687C
:1039F000401C88600328E3D18F60BFF34F8F1348CA
:103A000013490160BFF34F8F00BF00BF00BF00BF6D
:103A1000FAE7204601F0FAFA01B0F0BDAC00002050
:103A20000C01002041542B51474E53535244000087
:103A3000474E524D430000007800002042560008D7
:103A4000CC550008E45400084D5600080CED00E089
:103A50000400FA05B0B5044600680168474A0A4008
:103A6000A16823690B4365691D431543E1690D4353
:103A700005600322120343689343E2681A434260DD
:103A8000A269236A13430B221202856895431D43E2
:103A9000856000223A4B984209DC3D4B984217D092
:103AA0003C4B984214D03C4B984211D00FE0354B20
:103AB00098420DD0344B98420AD0344A904206D1F5
:103AC000364800688007000F35A2125800E0102227
:103AD0000125EB033648994210D1082A49D8C0463F
:103AE0007A441279520097440444204419444444CF
:103AF0001F00FEF7D5F8002817D113E0082A38D8A0
:103B00007A441279520097440434273420343434F0
:103B10002600FEF7C5F800281ED11AE0FEF7CEF801
:103B2000002802D1002524E01846400061684A08B8
:103B3000101801F097FA0246103A1E498A4218D22C
:103B400001400007400F084310E0FEF7B7F80028D7
:103B500002D100250DE0184661684A08101801F0EE
:103B600081FA01461039134A914202D22168C86095
:103B700000250020A066E0662846B0BDF369FFEF8F
:103B8000FF4F004000500040001401400038014049
:103B90000044004000480040004C0040301002400B
:103BA0000000000004000000080000000200000007
:103BB00000127A00F0FF0000B0B55823C2524165F0
:103BC00000238366014658314A808268002A0BD060
:103BD00001242507AA420CD02403A2420ED1026977
:103BE000002A04D13D4A0CE00269002A08D1FF22D4
:103BF00007E00269002A03D03F2202E08B8001E047
:103C00007F228A80CB6222228A62EFF31082012116
:103C100081F3108803689C680C439C6082F31088D1
:103C200002690B0384689C4204D1002A14D0124A12
:103C3000826603E0104B8366002A0FD0EFF31082F8
:103C400081F3108809214901006803680B43036070
:103C500082F310880020B0BD084A8266EFF310821C
:103C600081F310880068016820230B43036082F30E
:103C700010880020B0BDC04699380008CF37000832
:103C8000B0B5C16F212910D15221415A00290DD060
:103C900001465231C26C1388104C1C4003681C85CD
:103CA000921CC2640888401E0880B0BDEFF31081EA
:103CB000012282F3108803681C688025AC431C60D5
:103CC00081F31088EFF3108182F310880068026896
:103CD00040231343036081F31088B0BDFF0100004F
:103CE000B0B5C16F21290ED15221415A00290BD004
:103CF000014652310268C36C1C7814855A1CC26498
:103D00000888401E0880B0BDEFF31081012282F3C5
:103D1000108803681C688025AC431C6081F3108800
:103D2000EFF3108182F31088006802684023134388
:103D3000036081F31088B0BDF0B587B015460F461B
:103D40000668F1693940C91B4A424A410021AA422A
:103D500025D106930C9C002C24D00B46611C26D147
:103D6000F1693940C91B4A424A41AA4214D1F1695A
:103D70003940C91B4A424A41AA420DD1F169394032
:103D8000C91B4A424A41AA4206D1F1693940C91BBE
:103D90004A424A41AA42E3D0184607B0F0BD08465D
:103DA00007B0F0BDFDF796FB032007B0F0BD02930E
:103DB00001467831039101210191C90204910590D6
:103DC00006E0C9693940CA1B51425141A9424BD151
:103DD000FDF780FB0699411A0323A142DCD8059820
:103DE00001680A685207ECD5CA6912073FD4CA694C
:103DF0002646049C22423446E3D01F4604980862BB
:103E0000EFF31082012181F3108809235B010598EB
:103E1000046825689D43256082F31088EFF31082C3
:103E200081F31088059803689C688C439C60059812
:103E300082F31088026E012A0BD1EFF3108281F316
:103E4000108801680B681024A3430B60059882F367
:103E500010882021039B99600022026682661A70F6
:103E6000D960384607B0F0BD029807B0F0BD08250C
:103E70000D62EFF31081019880F31088092252013E
:103E8000059B1B681C6894431C6081F31088EFF34A
:103E9000108180F31088059A1268936883439360B9
:103EA000059B81F31088196E01290CD1EFF3108165
:103EB000012282F310881A6813681024A343136048
:103EC000059B81F310882021039A916000211966D7
:103ED00099661170D56007B0F0BD000080B502484A
:103EE000FEF73AF980BDC0460C01002080B50248BB
:103EF000FEF732F980BDC04694010020F0B589B0CC
:103F0000079008AC032121700021CE43012500A9B0
:103F100070C1302106910F273A462B46FDF7C6FBAC
:103F20002770059600A870C01022079F3846069992
:103F30002B46FDF7BBFB5620207000A870C0112255
:103F40003846069E31462B46FDF7B0FB257000949F
:103F50000195059F02972022079831462B46FDF7D1
:103F6000A5FB19200490207000A8B0C02922079F4B
:103F7000384631462B46FDF799FBFF202070009410
:103F80000195059E029627223846069F39462B4604
:103F9000FDF78CFB0820207000A870C0079E3046FB
:103FA0003946049A2B46FDF781FB072020700094C8
:103FB0000195059802901822304639462B46FDF7A8
:103FC00075FB09B0F0BD0000F0B585B0044601787E
:103FD0002D2900D1641C7F20C00500252E4627789E
:103FE0002E2F04D1641C012627782E2FFAD0002F03
:103FF00035D0303F092F32D80491002E10D06249BD
:10400000FCF7CEFE03903846FCF7C4FF039F394609
:1040100001F06AF9294601F021F90546384618E011
:1040200003902846FCF792FE01900D463846FCF7B7
:104030005EFD07460291002201982946534BFCF78A
:1040400061FD3A46029BFCF701FDFCF745FB054686
:104050000398641C049927782E2FC3D0C7E72D2915
:1040600002D10120C007454045492846FCF798FE8B
:10407000FCF746FF044664206043FCF78BFF0146D3
:10408000284601F089F905462046FCF78BFF0446D7
:104090003C492846FCF784FE214601F0DFF805B0D4
:1040A000F0BDC046F0B585B0044601782D2900D199
:1040B000641C7F20C00500252E4627782E2F04D1B2
:1040C000641C012627782E2FFAD0002F35D0303FE0
:1040D000092F32D80491002E10D02B49FCF760FE36
:1040E00003903846FCF756FF039F394601F0FCF871
:1040F000294601F0B3F80546384618E003902846F3
:10410000FCF724FE01900D463846FCF7F0FC07460C
:1041100002910022019829461C4BFCF7F3FC3A4619
:10412000029BFCF793FCFCF7D7FA05460398641C46
:10413000049927782E2FC3D0C7E72D2902D101205B
:10414000C00745400E492846FCF72AFEFCF7D8FE7A
:10415000044664206043FCF71DFF0146284601F039
:104160001BF905462046FCF71DFF04460549284675
:10417000FCF716FE214601F071F805B0F0BDC0460F
:104180000000C842000070420000204100002440AE
:10419000F0B585B00E4604460D4621350846283058
:1041A00003900020215C002920D02C291DD021184B
:1041B0004A78002A19D02C2A0ED08A78002A0DD0ED
:1041C0002C2A0DD0C97800290CD02C290CD0001D28
:1041D000215C0029E9D109E0401C06E0801C05E0D3
:1041E000801C02E0C01C01E0C01C401C0023B37115
:1041F00073713371F370B37073703370215C31700D
:1042000021184A7872708A78B270CA78F2700A7986
:10421000327149797171871DE05D002833D02C28F7
:1042200014D0E0194178002910D02C2913D08178BE
:10423000002916D02C2919D0C07800281CD02C2891
:104240001FD03F1DE05D0028E9D11CE07F1CE05D30
:1042500000281BD13DE0781C471CE05D002815D1EB
:1042600037E0BF1CE05D002810D132E0B81C471CCD
:10427000E05D00280AD12CE0FF1CE05D002805D19C
:1042800027E0F81C471CE05D002822D02C2814D021
:10429000E0194178002910D02C2910D0817800290C
:1042A0000FD02C290FD0C07800280ED02C280ED08B
:1042B0003F1DE05D0028E9D10BE07F1C09E0781C80
:1042C00006E0BF1C05E0B81C02E0FF1C01E0F81C82
:1042D000471C019502930496F61D0A213046FCF70F
:1042E0009EF8E05D2C280AD1F0A10A223046FCF7A6
:1042F00039F83D46049E605D002830D163E030709F
:104300007D1C605D2C28049E26D03072BD1C605D33
:104310002C2821D07072FD1C605D2C281CD0B0723E
:104320003D1D605D2C2817D0F0727D1D605D2C282E
:1043300012D03073BD1D605D2C280DD07073FD1D33
:10434000605D2C2808D0B0733D460835605D2C2890
:1043500002D0F07309373D46605D002833D02C2829
:1043600014D060194178002910D02C2913D08178FD
:10437000002916D02C2919D0C07800281CD02C2850
:104380001FD02D1D605D0028E9D11CE06D1C605D13
:1043900000281BD13DE0681C451C605D002815D13C
:1043A00037E0AD1C605D002810D132E0A81C451C30
:1043B000605D00280AD12CE0ED1C605D002805D16D
:1043C00027E0E81C451C605D002822D02C2814D072
:1043D00060194178002910D02C2910D0817800294B
:1043E0000FD02C290FD0C07800280ED02C280ED04A
:1043F0002D1D605D0028E9D10BE06D1C09E0681CF3
:1044000006E0AD1C05E0A81C02E0ED1C01E0E81C84
:10441000451C11360B213046FCF701F8605D2C2855
:1044200007D1A5A10B223046FBF79CFF2846049E2E
:1044300032E03070681C215C2C29049E2CD0B174B1
:10444000A81C215C2C2927D0F174E81C215C2C29A4
:1044500022D03175281D215C2C291DD07175681D55
:10446000215C2C2918D0B175A81D215C2C2913D0F2
:10447000F175E81D215C2C290ED0317628460830D4
:10448000215C2C2908D0717628460930215C2C2922
:1044900002D0B1760A352846029B019D215C002995
:1044A0002ED02C292BD021184A78002A27D02C2A4C
:1044B0000ED08A78002A11D02C2A14D0C97800296D
:1044C00017D02C291AD0001D215C0029E9D117E052
:1044D000401C401C215C002915D135E0801C215C6A
:1044E000002910D130E0801C401C215C00290AD139
:1044F0002AE0C01C215C002905D125E0C01C401C1D
:10450000215C002920D02C291DD021184A78002AAE
:1045100019D02C2A0ED08A78002A0DD02C2A0DD042
:10452000C97800290CD02C290CD0001D215C002951
:10453000E9D109E0401C06E0801C05E0801C02E097
:10454000C01C01E0C01C401CF377B377737733774E
:1045500031461C310B71225C2C2A04D10146605C6F
:10456000002814D136E00A70411C625C2C2A0BD062
:104570007277811C625C2C2A06D0B277C11C625C07
:104580002C2A01D0F277011D605C002822D02C2853
:1045900014D060184278002A10D02C2A10D08278CB
:1045A000002A0FD02C2A0FD0C07800280ED02C283B
:1045B0000ED0091D605C0028E9D10BE0491C09E020
:1045C000481C06E0891C05E0881C02E0C91C01E0CB
:1045D000C81C411CAB716B712B71EB70AB706B70B5
:1045E0002B70605C2C2804D10846215C00291ED168
:1045F00044E02870481C225C2C2A15D06A70881C64
:10460000225C2C2A10D0AA70C81C225C2C2A0BD049
:10461000EA70081D225C2C2A06D02A71481D225CF3
:104620002C2A01D06A71881D215C002926D02C29F2
:1046300014D021184A78002A12D02C2A12D08A7855
:10464000002A12D02C2A12D0C978002912D02C2985
:1046500012D0001D215C0029E9D10FE0401C0DE0C3
:10466000401C0BE0401C401C08E0801C06E0801C45
:10467000401C03E0C01C01E0C01C401C039A937165
:1046800053711371D370937053701370215C117058
:1046900020184178517081789170C178D17001797A
:1046A00011714079507105B0F0BDC04630302E30E8
:1046B00030303030300000003030302E303030308C
:1046C00030300000B0B505461420FBF783FD0446EA
:1046D0003AA12846FBF7DEFD002806D03AA10D22BC
:1046E0002046FBF73FFE2046B0BD3B492846FBF77E
:1046F000D1FD002806D039A118222046FBF732FE52
:104700002046B0BD3BA12846FBF7C4FD002806D0DB
:104710003BA10B222046FBF725FE2046B0BD3BA166
:104720002846FBF7B7FD002811D13CA12846FBF72E
:10473000B1FD00280BD13CA12846FBF7ABFD0028BA
:1047400005D13DA12846FBF7A5FD002807D0002094
:10475000A0704B2060704F2020702046B0BD39A162
:104760002846FBF797FD002806D039A10E222046E7
:10477000FBF7F8FD2046B0BD39A12846FBF78AFDBE
:10478000002806D0394910222046FBF7EBFD2046D1
:10479000B0BD37492846FBF77DFD002806D03549D6
:1047A0000F222046FBF7DEFD2046B0BD32492846E9
:1047B000FBF770FD0028CAD03049D7E741542B439E
:1047C00050494E3F000000002B4350494E3A2052C2
:1047D00045414459000000004D5600082B43524506
:1047E000473A20302C310A0A2B43475245473A209A
:1047F000302C310041542B435245473F000000000C
:104800002B435245473A20302C32000041542B5163
:10481000494647434E543D320000000041542B515D
:1048200049435347503D310041542B51474E535358
:1048300045504F3D3100000041542B51474E5353DA
:10484000433D310041542B514D544F50454E3D0096
:104850002B514D544F50454E3A20302C3000000023
:1048600041542B514D54434F4E4E3D00805600084D
:104870004256000870560008355600086056000879
:10488000F0B58BB014460E460390FCF739FB074693
:10489000002805943BD0F817049747403D1A00279D
:1048A0000A242846214600F0DDFB4443291B30241E
:1048B000214306AAD1550A2D2DD30A21FBF70CFE60
:1048C00006A8C019214341706421284600F0CAFBA4
:1048D000BF1C642D0546E3D27C1E3D46049F002F7D
:1048E00002941ED52D203070701C06A92A46FBF7B5
:1048F00039FD002C00D197E06A08032110460840DA
:10490000531E032B0195009058D200216FE03020F8
:10491000307001208BE07D1C3C46049F002F0294E8
:10492000E0D406A930462A46FBF71CFD002C059C66
:104930000AD001956A08032110460840531E032B34
:10494000009003D200211BE0012070E08A4302980E
:10495000C31E0021745CF518EF787754EC7074185E
:104960006778A8786070AF70A0786F78A77068706B
:10497000E078F55CE570F0541B1F091D8A42E9D10F
:10498000009F002F16D0705C029C621AB35C7354B7
:10499000B054012F0ED0481C325C231A2546F45C1B
:1049A0003454F254022F05D0881C315C2A1AB35CAF
:1049B0003354B154059C049F019838E08A43EB1EA0
:1049C000002177187878F418E5787D70E070B87871
:1049D000A578BD70A070F8786578FD706070387942
:1049E000F45C3C71F0541B1F091D8A42E9D1009808
:1049F0000028049F019C17D04A1CB55C671AF35D20
:104A0000B354F555049F01280ED08B1CF55CA21AF7
:104A1000B75CF754049FB554022805D08819C178B3
:104A2000E21AB35CC370B1540298801C059C002547
:104A300035543846FCF7AEFA0146307800280CD0E1
:104A4000707800280BD0B07800280BD0371DF07894
:104A500000283E46F1D17E1E07E0771C05E0701C61
:104A6000B71C01E0B01CF71C0646012C7CDB04954A
:104A70002E203070039800F08FFC03262640651E20
:104A8000002E29D0444900F02FFC0446FCF738FAE8
:104A9000014630313970FCF77DFA0146204600F0BE
:104AA0007BFC012E04D17F1C2C46032D16D259E02D
:104AB000394900F019FC0446FCF722FA014630316E
:104AC0007970FCF767FA0146204600F065FC022E7B
:104AD0004CD1BF1C059CA41E032D43D3661E2E4C37
:104AE000214600F001FC0546FCF70AFA0146303188
:104AF0003970FCF74FFA0146284600F04DFC21467C
:104B000000F0F2FB0546FCF7FBF901463031797005
:104B1000FCF740FA0146284600F03EFC214600F032
:104B2000E3FB0546FCF7ECF901463031B970FCF7C0
:104B300031FA0146284600F02FFC214600F0D4FB54
:104B40000546FCF7DDF901463031F970FCF722FA31
:104B50000146284600F020FC361F3F1D0121C943B5
:104B60008E42BDD3049838700BB0F0BD0A4900F0F6
:104B7000BBFB0446FCF7C4F901463031B970FCF7C1
:104B800009FA0146204600F007FCFF1C059CE41EC4
:104B9000032DA3D2E6E7C04600002041F0B503AFE5
:104BA00081B06E4631600446FBF7AEFB083007214A
:104BB00088436946081A85462146FBF77FFB13495F
:104BC000FBF760FB00280FD0054628463168FBF74D
:104BD00061FB00280AD1002420460C49FBF752FB58
:104BE00005460028F1D10BE0002409E02846FBF738
:104BF0008BFB401CFBF7EEFA04462946FBF75EFBF5
:104C00002046FC1F053CA546F0BDC046E054000808
:104C1000F0B583B00646C71D3846FBF775FB054661
:104C200011363046FBF770FB28180C30C0B2FBF78A
:104C3000D1FA044600284AD02846FBF7CBFA0546AD
:104C400024A13846FBF7F0FB002807D03846FFF7D1
:104C5000BBF906222946FFF713FE03E02846394632
:104C6000FBF72CFB3046FBF74FFBFBF7B3FA07468D
:104C70001BA13046FBF7D8FB0028029707D030462F
:104C8000FFF710FA06223946FFF7FAFD03E038462F
:104C90003146FBF713FB20462946FBF70FFBFBF7DA
:104CA00033FB2C26265420180195002545702046FC
:104CB000029F3946FBF74AFBFBF726FB26542018D8
:104CC00045700198FBF7B7FA3846FBF7B4FA20466F
:104CD00003B0F0BD30302E303030303030000000C6
:104CE0003030302E303030303030000098B0FCF7AB
:104CF00033FE0CAE301D2C21FBF793FB00251495E1
:104D00001020109001240F9402270C97059530462F
:104D1000FCF7F2FF002803D0EFF3108072B6FEE735
:104D20000B950A9509950726089608A82946FCF7C9
:104D30001BFF002803D0EFF3108072B6FEE7079543
:104D400006952120049004A8FCF78EFE002803D0CD
:104D5000EFF3108072B6FEE71095A00497490A6839
:104D600002430A600A6802400892089860040A68D0
:104D700002430A6009680140089108983603904888
:104D800031462A46FCF79EFB0920C006039003210A
:104D9000C90202912A46FCF795FB0F950E950D94DA
:104DA0000C960CAE86483146FCF7AAFA0E950D9586
:104DB000E0030C9082483146FCF7A2FA0F950E955D
:104DC0000D9402980C9003983146FCF799FA0E97CF
:104DD000112000040D9008200C9079483146FCF712
:104DE0008FFA0626304629462A46FCF705FE30464D
:104DF000FCF7F6FD734A74487449D160106155613F
:104E00009461D561156255629562D56215460C357F
:104E10002846FCF7F5FB002803D0EFF3108072B6AC
:104E2000FEE7039E00212846FCF75AFB002803D02A
:104E3000EFF3108072B6FEE7002728463946FCF7EC
:104E400070FB002803D0EFF3108072B6FEE76048D5
:104E50000C23604907624762E1225502A2C0076045
:104E6000476002938360C76007610C38FDF760FB01
:104E7000002803D0EFF3108072B6FEE7564857497A
:104E8000A2C00760476002998160C76007614761FF
:104E900087610C38FDF74CFB002803D0EFF310803E
:104EA00072B6FEE7E10230462246FCF70BFB210317
:104EB00030462246FCF706FBFEF764FA7D20C00070
:104EC00002900097F8430390494F3E4D019429E02A
:104ED00007223F484AA1039D2B46FDF731FCC8201D
:104EE000FCF7E4F90E223C482646474C21462B4667
:104EF000FDF726FC0298FCF7D9F92046FFF7E2FB04
:104F000005463D48294622463446FEF72BFD2846F5
:104F10002C4DFBF790F93E70FDF714F93046314601
:104F2000FCF786FDFCF7D6FA6968401A2C498842DE
:104F3000CED2029E0A2226482AA1039BFDF700FC3E
:104F40003046FCF7B3F938780028234831D02522C1
:104F5000214828490D46039C2346FDF7F1FB3046C6
:104F6000FCF7A4F92846FFF7ADFB05462248294681
:104F7000204AFEF7F7FC2846FBF75DF94422164865
:104F80001E490D462346FDF7DBFB3046FCF78EF944
:104F900028462C46FFF796FB054617482946224629
:104FA000FEF7E0FC2846074DFBF745F900983870FE
:104FB0000948FEF749FA019CB4E7C04614100240C4
:104FC00000040048AC0000200E09002000540040FE
:104FD0000C010020003801409401002000480040EE
:104FE000A1BB0D00697352756E6E696E670A000091
:104FF00011000020CC5500081C0A0020295500088B
:10500000697353746F700A0090550008B0B5044678
:105010001149FBF73FF9002803D01048FEF714FAB6
:1050200009E02046FBF770F90021CB4382B20B4820
:105030002146FDF785FB7D20C000FCF737F92046AF
:10504000FFF740FB0546064829462246FEF78AFC44
:105050002846FBF7F0F8B0BD425600089401002046
:105060001C0A002043088B421AD3002203098B42FA
:1050700079D3030A8B425ED3030B8B4242D3030CDA
:105080008B4227D30902FF2212BA030C8B4202D3B0
:105090001212090203D0030B8B4233D31AE0D3E080
:1050A000411A8041401C704703460B4371D44308AA
:1050B0008B42F5D3002203098B4254D3030A8B425F
:1050C00039D3030B8B421DD3030C8B4202D394467E
:1050D0006EE0090AC30B8B4201D3CB03C01A5241C5
:1050E000830B8B4201D38B03C01A5241430B8B427B
:1050F00001D34B03C01A5241030B8B4201D30B0364
:10510000C01A5241C30A8B4201D3CB02C01A52418A
:10511000830A8B4201D38B02C01A5241430A8B424D
:1051200001D34B02C01A5241030A8B4201D30B0236
:10513000C01A5241CDD2C3098B4201D3CB01C01A50
:10514000524183098B4201D38B01C01A524143095A
:105150008B4201D34B01C01A524103098B4201D348
:105160000B01C01A5241C3088B4201D3CB00C01AB5
:10517000524183088B4201D38B00C01A524143082D
:105180008B4201D34B00C01A5241411A52411000C8
:105190007047CA0F00D04942031000D34042534029
:1051A00000229C4603098B422DD3030A8B4212D363
:1051B0008901FC2212BA030A8B420CD38901921195
:1051C0008B4208D3890192118B4204D3890137D0D5
:1051D000921100E08909C3098B4201D3CB01C01AA7
:1051E000524183098B4201D38B01C01A52414309BA
:1051F0008B4201D34B01C01A524103098B4201D3A8
:105200000B01C01A5241C3088B4201D3CB00C01A14
:10521000524183088B4201D38B00C01A5241D9D22C
:1052200043088B4201D34B00C01A5241411A00D2AD
:1052300001465241104663465B1000D3404270471E
:1052400063465B1000D3404201B50021004201D00B
:10525000C9430846C046C04602BD000070B50125DE
:10526000ED0704004C4020D4441A01D2001B091958
:10527000C60D4B00F2B2FF2A29D01B0E2CD0000223
:105280000C0228432C43D31ADC40051910D2280AFB
:1052900002D3401C6D0611D0761EF6058019FF2A38
:1052A00000DA70BDC00DC00570BD694000F07AF82D
:1052B00001200543C541521C761CE8E764089C4068
:1052C000C90161408900E7D10124A043E4E71B0E36
:1052D000440200D0034870BD002AFCD1C00FC007B3
:1052E00070BD00BF0000C07F70B5420064414B003C
:1052F0005C41120E39D01B0E38D0FF2A3CD0FF2B58
:105300003AD0D2187F3A40024902400A490A451869
:10531000ED0106004E43000A090A48430104731ACE
:105320004019190C4318990F04D05B080121490753
:105330005B1A521CD80904D3401CF50301D19D0609
:1053400007D0FF2A08D2D50506D0E407204340192C
:1053500070BD0125A843F4E7002A01DCE00770BD19
:105360002402FF202043C00570BD1B0EFF2A03D07E
:10537000FF2B01D0E00770BDFF2636064500B54281
:1053800006D84D00B54203D8D218FF2A00D0E7E76F
:10539000004870BD0000C07F70B50125ED07040016
:1053A0004C4022D4441A02D26C40001B0919C60D8D
:1053B0004B00F2B2FF2A4BD01B0E50D000020C0261
:1053C000A8432C43D31ADC40051B05D5AD0019D3E7
:1053D0006D08761E521E37D0F605280A01D28019B4
:1053E00070BD70416D0603D070BD6940FFF73CFF92
:1053F0009C4009026140490001D0401E70BD01245B
:10540000A04370BD6D081DD001202B0C01D12D04CF
:1054100010302B0E01D12D0208302B0F01D12D01A0
:10542000001DAB0F01D1AD00801CEB0F01D16D0051
:10543000401C361A121A6D00680AF5054019012A37
:1054400002DB70BD002070BDC036300AC00770BDE1
:105450001B0E440201D1FF2B00D1024870BD002A6F
:10546000F0D070BD0000C07F8182838485868788EC
:10547000898B8C8D8E8F919293959697999A9C9DFE
:105480009FA0A2A3A5A7A8AAACAEB0B2B3B5B7B966
:10549000BCBEC0C2C5C7C9CCCED1D4D7D9DCDFE22F
:1054A000E6E9ECF0F3F7FAFE00000000000000006F
:1054B00001020304060708090000000001020304BA
:1054C00002030405060708090A0B0C0D0E0F101045
:1054D0000102030405060708090A0B0C0D0E0F1044
:1054E000200D0A0041542B514D54434F4E4E3D3038
:1054F0002C22447563222C226475637472616E31B0
:105500003433222C2261696F5F66584D6A3735311A
:10551000506831513336427A6F41526250396531A9
:10552000787A744A51220D0A0041542B514D54434C
:105530004F4E4E3D302C22447563222C22647563FD
:105540007472616E313433222C2261696F5F797617
:105550007A643633715343796E333653764538382F
:10556000704C586B425657743463220D0A004154F4
:105570002B5149435347503D312C226D2D7761709B
:10558000222C226D6D73222C226D6D73220D0A0068
:1055900041542B514D54444953433D300D0A004171
:1055A000542B51474E5353433D310D0A0041542B68
:1055B00051474E535345504F3D310D0A0041542B36
:1055C00051494647434E543D320D0A0041542B5138
:1055D0004D544F50454E3D302C22696F2E61646111
:1055E00066727569742E636F6D222C313838330DF5
:1055F0000A0041542B51475245464C4F433D3231EE
:105600002E30343139362C3130352E373836383665
:10561000350D0A0041542B435245473F3B2B43472E
:105620005245473F0D0A0041542B51474E535354A6
:10563000533F0D0A0041542B514D54444953433DAF
:10564000300041542B514D545055423D0041542B94
:10565000435245473F3B2B43475245473F000000DD
:105660002B514D54444953433A20302C3000000014
:105670002B514D545055423A20302C302C300000E4
:105680002B514D54434F4E4E3A20302C302C30008D
:10569000B05600080000002018000000FC000008C0
:1056A000C8560008180000207018000018010008F3
:1056B00000000000010000000400000000127A0059
:0856C0001A01000000000000C7
:04000005080000B936
:00000001FF
